:020000040000FA
:06000000F3EF01F0120015
:020006000000F8
:08000800D9CFE6FFE1CFD9FFDB
:10001000240EE126800EF36E040EF3CFDBFF050EF7
:10002000DB6A790EF36E060EF3CFDBFF070EDB6A99
:10003000790EF36E080EF3CFDBFF090EDB6A790E43
:10004000F36E0A0EF3CFDBFF0B0EDB6A800EF36E4E
:100050000C0EF3CFDBFF0D0EDB6A3D0EF36E0E0EC2
:10006000F3CFDBFF0F0EDB6A390EF36E100EF3CF0A
:10007000DBFF110EDB6A780EF36E120EF3CFDBFF9F
:10008000130EDB6A080EF36E140EF3CFDBFF150EB2
:10009000DB6A040EF36E160EF3CFDBFF170EDB6A7E
:1000A000020EF36E180EF3CFDBFF190EDB6A010EA2
:1000B000F36E1A0EF3CFDBFF1B0EDB6A080EF36E36
:1000C0001C0EF3CFDBFF1D0EDB6A040EF36E1E0E5B
:1000D000F3CFDBFF1F0EDB6A020EF36E200EF3CFB1
:1000E000DBFF210EDB6A010EF36E220EF3CFDBFF86
:1000F000230EDB6A936A956A020EDB6A030EDB6AE3
:10010000020EDBCF14F0030EDBCF15F0D8901550A4
:1001100004E6D00E145C070E15584BE2DE6ADD6A69
:10012000DECF14F0DDCF15F0D890155004E6040EA4
:10013000145C000E155837E2D950040F146EDACF54
:1001400015F0020E086E096ADECF0DF0DDCF0EF05D
:10015000B6EC01F014500624E96E15500720EA6E43
:10016000EF50816ED950140F146EDACF15F0020ED5
:10017000086E096ADECF0DF0DDCF0EF0B6EC01F0AF
:1001800014500624E96E15500720EA6EEF50836E76
:10019000C80EE66EE66A86D8E552E552DF2A010E01
:1001A00001E3DB2ABDD7020EDB2A030E01E3DB2AC3
:1001B000A7D7836A300EE66EF20EE66E73D8E5526C
:1001C000E552020EDB6A030EDB6A020EDBCF14F08F
:1001D000030EDBCF15F0D890155004E6D00E145C5A
:1001E000070E15584CE2040EDE6EDD6ADECF14F009
:1001F000DDCF15F0D890155004E6080E145C000E03
:10020000155837E2D950040F146EDACF15F0020EEC
:10021000086E096ADECF0DF0DDCF0EF0B6EC01F00E
:1002200014500624E96E15500720EA6EEF50816ED7
:10023000D950140F146EDACF15F0020E086E096A49
:10024000DECF0DF0DDCF0EF0B6EC01F01450062439
:10025000E96E15500720EA6EEF50836EC80EE66E09
:10026000E66A20D8E552E552DF2A010E01E3DB2AD7
:10027000BDD7020EDB2A030E01E3DB2AA6D7836A71
:10028000300EE66EF20EE66E0DD8E552E55234D72A
:10029000240EE15C02E2E16AE552E16EE552E7CF4D
:1002A000D9FF1200D9CFE6FFE1CFD9FFFD0EDBCF9A
:1002B00014F0DB06FE0EDBCF15F001E2DB06145076
:0E02C000151001E0F3D7E552E7CFD9FF120089
:0202CE00060E1A
:1002D000F66E000EF76E000EF86E00010900F55084
:1002E000856F0900F550866F03E1856701D03DD029
:1002F0000900F550806F0900F550816F0900F55035
:10030000826F09000900F550E96E0900F550EA6EA8
:10031000090009000900F550836F0900F550846F4A
:1003200009000900F6CF87F0F7CF88F0F8CF89F001
:1003300080C0F6FF81C0F7FF82C0F8FF0001835341
:1003400002E1845307E00900F550EE6E8307F8E2FE
:100350008407F9D787C0F6FF88C0F7FF89C0F8FF88
:0C03600000018507000E865BBFD712006D
:04036C0009C013F0C1
:1003700008C012F008500D02F4CF07F0F3CF06F0DA
:1003800009500E02F4CF09F0F3CF08F00D02F3503C
:100390000726F4500822E86A092212500E02F35090
:1003A0000726F4500822E86A09220EAEDCEF01F0BD
:1003B0001250085E1350095A13AE000C0D50085E1F
:0603C0000E50095A000C6A
:0A03C600000EF36E00EE00F0060ECC
:1003D00001D81200EA6002D0EE6AFCD7F350E9605F
:0603E0001200EE6AFCD7DA
:0A03E60015EE00F025EE00F0F86AB5
:1003F000019C67EC01F001EC02F004EC00F0FBD78B
:020400001200E8
:020402001200E6
:00000001FF
